{
  "address": "0xa5D0e313f91191829FA5002e1248b0a8f55Eb96A",
  "abi": [
    {
      "inputs": [
        {
          "internalType": "address",
          "name": "_bfactory",
          "type": "address"
        }
      ],
      "payable": false,
      "stateMutability": "nonpayable",
      "type": "constructor"
    },
    {
      "anonymous": false,
      "inputs": [
        {
          "indexed": true,
          "internalType": "address",
          "name": "token1",
          "type": "address"
        },
        {
          "indexed": true,
          "internalType": "address",
          "name": "token2",
          "type": "address"
        },
        {
          "indexed": false,
          "internalType": "bytes32",
          "name": "oldIndices",
          "type": "bytes32"
        },
        {
          "indexed": false,
          "internalType": "bytes32",
          "name": "newIndices",
          "type": "bytes32"
        }
      ],
      "name": "IndicesUpdated",
      "type": "event"
    },
    {
      "anonymous": false,
      "inputs": [
        {
          "indexed": true,
          "internalType": "address",
          "name": "pool",
          "type": "address"
        },
        {
          "indexed": true,
          "internalType": "address",
          "name": "token1",
          "type": "address"
        },
        {
          "indexed": true,
          "internalType": "address",
          "name": "token2",
          "type": "address"
        }
      ],
      "name": "PoolTokenPairAdded",
      "type": "event"
    },
    {
      "constant": false,
      "inputs": [
        {
          "internalType": "address",
          "name": "token1",
          "type": "address"
        },
        {
          "internalType": "address",
          "name": "token2",
          "type": "address"
        },
        {
          "internalType": "address[]",
          "name": "pools",
          "type": "address[]"
        }
      ],
      "name": "_getEffectiveLiquidityForPoolsPurge",
      "outputs": [
        {
          "internalType": "uint256[]",
          "name": "effectiveLiquidity",
          "type": "uint256[]"
        }
      ],
      "payable": false,
      "stateMutability": "nonpayable",
      "type": "function"
    },
    {
      "constant": false,
      "inputs": [
        {
          "internalType": "address",
          "name": "pool",
          "type": "address"
        },
        {
          "internalType": "address",
          "name": "token1",
          "type": "address"
        },
        {
          "internalType": "address",
          "name": "token2",
          "type": "address"
        }
      ],
      "name": "addPoolPair",
      "outputs": [
        {
          "internalType": "uint256",
          "name": "listed",
          "type": "uint256"
        }
      ],
      "payable": false,
      "stateMutability": "nonpayable",
      "type": "function"
    },
    {
      "constant": false,
      "inputs": [
        {
          "internalType": "address[]",
          "name": "pools",
          "type": "address[]"
        },
        {
          "internalType": "address",
          "name": "token1",
          "type": "address"
        },
        {
          "internalType": "address",
          "name": "token2",
          "type": "address"
        }
      ],
      "name": "addPools",
      "outputs": [
        {
          "internalType": "uint256[]",
          "name": "listed",
          "type": "uint256[]"
        }
      ],
      "payable": false,
      "stateMutability": "nonpayable",
      "type": "function"
    },
    {
      "constant": true,
      "inputs": [
        {
          "internalType": "address",
          "name": "fromToken",
          "type": "address"
        },
        {
          "internalType": "address",
          "name": "destToken",
          "type": "address"
        }
      ],
      "name": "getBestPools",
      "outputs": [
        {
          "internalType": "address[]",
          "name": "pools",
          "type": "address[]"
        }
      ],
      "payable": false,
      "stateMutability": "view",
      "type": "function"
    },
    {
      "constant": true,
      "inputs": [
        {
          "internalType": "address",
          "name": "fromToken",
          "type": "address"
        },
        {
          "internalType": "address",
          "name": "destToken",
          "type": "address"
        },
        {
          "internalType": "uint256",
          "name": "limit",
          "type": "uint256"
        }
      ],
      "name": "getBestPoolsWithLimit",
      "outputs": [
        {
          "internalType": "address[]",
          "name": "pools",
          "type": "address[]"
        }
      ],
      "payable": false,
      "stateMutability": "view",
      "type": "function"
    },
    {
      "constant": true,
      "inputs": [
        {
          "internalType": "address",
          "name": "pool",
          "type": "address"
        },
        {
          "internalType": "address",
          "name": "fromToken",
          "type": "address"
        },
        {
          "internalType": "address",
          "name": "destToken",
          "type": "address"
        }
      ],
      "name": "getPairInfo",
      "outputs": [
        {
          "internalType": "uint256",
          "name": "weight1",
          "type": "uint256"
        },
        {
          "internalType": "uint256",
          "name": "weight2",
          "type": "uint256"
        },
        {
          "internalType": "uint256",
          "name": "swapFee",
          "type": "uint256"
        }
      ],
      "payable": false,
      "stateMutability": "view",
      "type": "function"
    },
    {
      "constant": true,
      "inputs": [
        {
          "internalType": "address",
          "name": "fromToken",
          "type": "address"
        },
        {
          "internalType": "address",
          "name": "destToken",
          "type": "address"
        },
        {
          "internalType": "uint256",
          "name": "offset",
          "type": "uint256"
        },
        {
          "internalType": "uint256",
          "name": "limit",
          "type": "uint256"
        }
      ],
      "name": "getPoolsWithLimit",
      "outputs": [
        {
          "internalType": "address[]",
          "name": "result",
          "type": "address[]"
        }
      ],
      "payable": false,
      "stateMutability": "view",
      "type": "function"
    },
    {
      "constant": false,
      "inputs": [
        {
          "internalType": "address[]",
          "name": "tokens",
          "type": "address[]"
        },
        {
          "internalType": "uint256",
          "name": "lengthLimit",
          "type": "uint256"
        }
      ],
      "name": "sortPools",
      "outputs": [],
      "payable": false,
      "stateMutability": "nonpayable",
      "type": "function"
    },
    {
      "constant": false,
      "inputs": [
        {
          "internalType": "address[]",
          "name": "tokens",
          "type": "address[]"
        },
        {
          "internalType": "uint256",
          "name": "lengthLimit",
          "type": "uint256"
        }
      ],
      "name": "sortPoolsWithPurge",
      "outputs": [],
      "payable": false,
      "stateMutability": "nonpayable",
      "type": "function"
    }
  ],
  "transactionHash": "0xf6a1e989cefcda71f7001cd7baf97346bf633ed9b020f1d8529aa862cedc24d6",
  "args": [
    "0xF6e18c0ec06cc7d073FAa7C33dbD330307bC5D60"
  ],
  "solcInputHash": "f92532b89e52a60ced2a70b58d967ccd",
  "bytecode": "0x608060405234801561001057600080fd5b5060405161229d38038061229d8339818101604052602081101561003357600080fd5b5051600280546001600160a01b0319166001600160a01b0390921691909117905561223a806100636000396000f3fe608060405234801561001057600080fd5b50600436106100a35760003560e01c8063a275499611610076578063bfdbfc431161005b578063bfdbfc431461039d578063e7156fa3146103d3578063f540697014610401576100a3565b8063a2754996146102f1578063b108cd3714610361576100a3565b80632013c706146100a8578063500b6c71146101b45780637a846457146101fe57806388376fbe14610270575b600080fd5b610164600480360360608110156100be57600080fd5b6001600160a01b0382358116926020810135909116918101906060810160408201356401000000008111156100f257600080fd5b82018360208201111561010457600080fd5b8035906020019184602083028401116401000000008311171561012657600080fd5b919080806020026020016040519081016040528093929190818152602001838360200280828437600092019190915250929550610457945050505050565b60408051602080825283518183015283519192839290830191858101910280838360005b838110156101a0578181015183820152602001610188565b505050509050019250505060405180910390f35b6101ec600480360360608110156101ca57600080fd5b506001600160a01b038135811691602081013582169160409091013516610a0e565b60408051918252519081900360200190f35b61026e6004803603604081101561021457600080fd5b81019060208101813564010000000081111561022f57600080fd5b82018360208201111561024157600080fd5b8035906020019184602083028401116401000000008311171561026357600080fd5b919350915035611008565b005b6101646004803603606081101561028657600080fd5b8101906020810181356401000000008111156102a157600080fd5b8201836020820111156102b357600080fd5b803590602001918460208302840111640100000000831117156102d557600080fd5b91935091506001600160a01b03813581169160200135166112d5565b61026e6004803603604081101561030757600080fd5b81019060208101813564010000000081111561032257600080fd5b82018360208201111561033457600080fd5b8035906020019184602083028401116401000000008311171561035657600080fd5b91935091503561135d565b6101646004803603608081101561037757600080fd5b506001600160a01b038135811691602081013590911690604081013590606001356115b4565b610164600480360360608110156103b357600080fd5b506001600160a01b03813581169160208101359091169060400135611690565b610164600480360360408110156103e957600080fd5b506001600160a01b03813581169160200135166117cf565b6104396004803603606081101561041757600080fd5b506001600160a01b0381358116916020810135821691604090910135166117e6565b60408051938452602084019290925282820152519081900360600190f35b6060600080610466868661187b565b905060005b84518110156108395761047c6121bd565b6001600087848151811061048c57fe5b6020908102919091018101516001600160a01b039081168352828201939093526040918201600090812087825282528290208251608081018452815469ffffffffffffffffffff8082168352600160501b8204811694830194909452600160a01b90049092169282019290925260019091015460608201529150878116908916101561074057805160208201516105439169ffffffffffffffffffff9081169161053e9183911663ffffffff6118ef16565b611949565b6001600088858151811061055357fe5b60200260200101516001600160a01b03166001600160a01b0316815260200190815260200160002060008581526020019081526020016000206001018190555061068a8683815181106105a257fe5b60200260200101516001600160a01b031663f8b2cb4f896040518263ffffffff1660e01b815260040180826001600160a01b03166001600160a01b0316815260200191505060206040518083038186803b1580156105ff57600080fd5b505afa158015610613573d6000803e3d6000fd5b505050506040513d602081101561062957600080fd5b505187516001906000908a908790811061063f57fe5b60200260200101516001600160a01b03166001600160a01b03168152602001908152602001600020600086815260200190815260200160002060010154611a8790919063ffffffff16565b6001600088858151811061069a57fe5b60200260200101516001600160a01b03166001600160a01b03168152602001908152602001600020600085815260200190815260200160002060010181905550610739600160008885815181106106ed57fe5b60200260200101516001600160a01b03166001600160a01b03168152602001908152602001600020600085815260200190815260200160002060010154856118ef90919063ffffffff16565b9350610830565b6020810151815161076b9169ffffffffffffffffffff9081169161053e91168263ffffffff6118ef16565b6001600088858151811061077b57fe5b60200260200101516001600160a01b03166001600160a01b031681526020019081526020016000206000858152602001908152602001600020600101819055506107ca8683815181106105a257fe5b600160008885815181106107da57fe5b60200260200101516001600160a01b03166001600160a01b0316815260200190815260200160002060008581526020019081526020016000206001018190555061082d600160008885815181106106ed57fe5b93505b5060010161046b565b50600061084e8367016345785d8a0000611ae0565b905060005b600083815260208190526040902061086a90611bbc565b81101561092857600083815260208190526040812060019081018054859391908590811061089457fe5b60009182526020808320909101546001600160a01b0316835282810193909352604091820181208782529092529020600101541015610920576000838152602081905260409020600101805461091e9190839081106108ef57fe5b6000918252602080832090910154868352908290526040909120906001600160a01b031663ffffffff611bc316565b505b600101610853565b50600082815260208190526040902061094090611bbc565b604051908082528060200260200182016040528015610969578160200160208202803883390190505b50935060005b600083815260208190526040902061098690611bbc565b811015610a0357600083815260208190526040812060019081018054919291849081106109af57fe5b60009182526020808320909101546001600160a01b03168352828101939093526040918201812086825290925290206001015485518690839081106109f057fe5b602090810291909101015260010161096f565b505050509392505050565b600254604080517fc2bb6dc20000000000000000000000000000000000000000000000000000000081526001600160a01b0386811660048301529151600093929092169163c2bb6dc291602480820192602092909190829003018186803b158015610a7857600080fd5b505afa158015610a8c573d6000803e3d6000fd5b505050506040513d6020811015610aa257600080fd5b5051610af5576040805162461bcd60e51b815260206004820152600d60248201527f4552525f4e4f545f42504f4f4c00000000000000000000000000000000000000604482015290519081900360640190fd5b6000846001600160a01b031663d4cadf686040518163ffffffff1660e01b815260040160206040518083038186803b158015610b3057600080fd5b505afa158015610b44573d6000803e3d6000fd5b505050506040513d6020811015610b5a57600080fd5b50519050666a94d74f430000811115610bba576040805162461bcd60e51b815260206004820152601060248201527f4552525f4645455f544f4f5f4849474800000000000000000000000000000000604482015290519081900360640190fd5b6000610bc6858561187b565b6000818152602081905260409020909150610be7908763ffffffff611cf016565b50836001600160a01b0316856001600160a01b03161015610ddc576040518060800160405280876001600160a01b031663948d8ce6886040518263ffffffff1660e01b815260040180826001600160a01b03166001600160a01b0316815260200191505060206040518083038186803b158015610c6357600080fd5b505afa158015610c77573d6000803e3d6000fd5b505050506040513d6020811015610c8d57600080fd5b505169ffffffffffffffffffff16815260408051634a46c67360e11b81526001600160a01b0388811660048301529151602093840193928b169263948d8ce69260248082019391829003018186803b158015610ce857600080fd5b505afa158015610cfc573d6000803e3d6000fd5b505050506040513d6020811015610d1257600080fd5b505169ffffffffffffffffffff9081168252848116602083810191909152600060409384018190526001600160a01b038b16815260018083528482208783528352908490208551815493870151958701518516600160a01b027fffff00000000000000000000ffffffffffffffffffffffffffffffffffffffff968616600160501b0273ffffffffffffffffffff00000000000000000000199290961669ffffffffffffffffffff1990951694909417169390931793909316178155606090920151910155610fb2565b6040518060800160405280876001600160a01b031663948d8ce6876040518263ffffffff1660e01b815260040180826001600160a01b03166001600160a01b0316815260200191505060206040518083038186803b158015610e3d57600080fd5b505afa158015610e51573d6000803e3d6000fd5b505050506040513d6020811015610e6757600080fd5b505169ffffffffffffffffffff16815260408051634a46c67360e11b81526001600160a01b0389811660048301529151602093840193928b169263948d8ce69260248082019391829003018186803b158015610ec257600080fd5b505afa158015610ed6573d6000803e3d6000fd5b505050506040513d6020811015610eec57600080fd5b505169ffffffffffffffffffff9081168252848116602083810191909152600060409384018190526001600160a01b038b16815260018083528482208783528352908490208551815493870151958701518516600160a01b027fffff00000000000000000000ffffffffffffffffffffffffffffffffffffffff968616600160501b0273ffffffffffffffffffff00000000000000000000199290961669ffffffffffffffffffff19909516949094171693909317939093161781556060909201519101555b836001600160a01b0316856001600160a01b0316876001600160a01b03167f181090c3a4bc51a62093032ebf96fd26ff1f27c2145aa9a28c8a5b9f627bcdd460405160405180910390a450506001019392505050565b60005b828110156112cf57600181015b838110156112c657600061106286868581811061103157fe5b905060200201356001600160a01b031687878581811061104d57fe5b905060200201356001600160a01b031661187b565b905060606110b487878681811061107557fe5b905060200201356001600160a01b031688888681811061109157fe5b905060200201356001600160a01b031660006110af6101008a611d55565b6115b4565b905060606110f98888878181106110c757fe5b905060200201356001600160a01b03168989878181106110e357fe5b905060200201356001600160a01b031684611d6b565b9050600061110682611fed565b60008581526020819052604090206002015490915081146112b65788888681811061112d57fe5b905060200201356001600160a01b03166001600160a01b031689898881811061115257fe5b905060200201356001600160a01b03166001600160a01b0316106111915788888781811061117c57fe5b905060200201356001600160a01b03166111ae565b88888681811061119d57fe5b905060200201356001600160a01b03165b6001600160a01b03168989878181106111c357fe5b905060200201356001600160a01b03166001600160a01b03168a8a898181106111e857fe5b905060200201356001600160a01b03166001600160a01b0316106112275789898781811061121257fe5b905060200201356001600160a01b0316611244565b89898881811061123357fe5b905060200201356001600160a01b03165b6001600160a01b03167fa91f9532dc66c94302dbfd7be21a31cdee3b1c97e8b3064aab212b8e64e936c56000808881526020019081526020016000206002015484604051808381526020018281526020019250505060405180910390a360008481526020819052604090206002018190555b5050600190920191506110189050565b5060010161100b565b50505050565b604080518481526020808602820101909152606090848015611301578160200160208202803883390190505b50905060005b848110156113545761133586868381811061131e57fe5b905060200201356001600160a01b03168585610a0e565b82828151811061134157fe5b6020908102919091010152600101611307565b50949350505050565b60005b828110156112cf57600181015b838110156115ab57600061138686868581811061103157fe5b9050606061139987878681811061107557fe5b905060606113de8888878181106113ac57fe5b905060200201356001600160a01b03168989878181106113c857fe5b905060200201356001600160a01b031684610457565b905060006113eb82611fed565b600085815260208190526040902060020154909150811461159b5788888681811061141257fe5b905060200201356001600160a01b03166001600160a01b031689898881811061143757fe5b905060200201356001600160a01b03166001600160a01b0316106114765788888781811061146157fe5b905060200201356001600160a01b0316611493565b88888681811061148257fe5b905060200201356001600160a01b03165b6001600160a01b03168989878181106114a857fe5b905060200201356001600160a01b03166001600160a01b03168a8a898181106114cd57fe5b905060200201356001600160a01b03166001600160a01b03161061150c578989878181106114f757fe5b905060200201356001600160a01b0316611529565b89898881811061151857fe5b905060200201356001600160a01b03165b6001600160a01b03167fa91f9532dc66c94302dbfd7be21a31cdee3b1c97e8b3064aab212b8e64e936c56000808881526020019081526020016000206002015484604051808381526020018281526020019250505060405180910390a360008481526020819052604090206002018190555b50506001909201915061136d9050565b50600101611360565b606060006115c2868661187b565b6000818152602081905260409020600101549091506115e5908490869003611d55565b60405190808252806020026020018201604052801561160e578160200160208202803883390190505b50915060005b8251811015611686576000828152602081905260409020600101805486830190811061163c57fe5b9060005260206000200160009054906101000a90046001600160a01b031683828151811061166657fe5b6001600160a01b0390921660209283029190910190910152600101611614565b5050949350505050565b6060600061169e858561187b565b6000818152602081905260408120600201549192505b60008282602081106116c257fe5b1a60f81b7effffffffffffffffffffffffffffffffffffffffffffffffffffffffffffff19161180156116fe57506116fb856020611d55565b81105b1561170b576001016116b4565b80604051908082528060200260200182016040528015611735578160200160208202803883390190505b50935060005b81811015610a03576000611763600185846020811061175657fe5b1a9063ffffffff6120c616565b60008681526020819052604090206001018054919250908290811061178457fe5b9060005260206000200160009054906101000a90046001600160a01b03168683815181106117ae57fe5b6001600160a01b03909216602092830291909101909101525060010161173b565b60606117dd83836020611690565b90505b92915050565b6000806000806117f6868661187b565b90506118006121bd565b506001600160a01b03969096166000908152600160208181526040808420998452988152918890208851608081018a52815469ffffffffffffffffffff808216808452600160501b83048216968401879052600160a01b909204169a82018b9052919092015460609092019190915297909695509350505050565b6000816001600160a01b0316836001600160a01b03161061189c578261189e565b815b6fffffffffffffffffffffffffffffffff166080836001600160a01b0316856001600160a01b0316106118d157836118d3565b845b6fffffffffffffffffffffffffffffffff16901b179392505050565b6000828201838110156117dd576040805162461bcd60e51b815260206004820152601b60248201527f536166654d6174683a206164646974696f6e206f766572666c6f770000000000604482015290519081900360640190fd5b60008161199d576040805162461bcd60e51b815260206004820152600c60248201527f4552525f4449565f5a45524f0000000000000000000000000000000000000000604482015290519081900360640190fd5b670de0b6b3a764000083028315806119c55750670de0b6b3a76400008482816119c257fe5b04145b611a16576040805162461bcd60e51b815260206004820152601060248201527f4552525f4449565f494e5445524e414c00000000000000000000000000000000604482015290519081900360640190fd5b60028304810181811015611a71576040805162461bcd60e51b815260206004820152601060248201527f4552525f4449565f494e5445524e414c00000000000000000000000000000000604482015290519081900360640190fd5b6000848281611a7c57fe5b049695505050505050565b600082611a96575060006117e0565b82820282848281611aa357fe5b04146117dd5760405162461bcd60e51b81526004018080602001828103825260218152602001806121e56021913960400191505060405180910390fd5b6000828202831580611afa575082848281611af757fe5b04145b611b4b576040805162461bcd60e51b815260206004820152601060248201527f4552525f4d554c5f4f564552464c4f5700000000000000000000000000000000604482015290519081900360640190fd5b6706f05b59d3b20000810181811015611bab576040805162461bcd60e51b815260206004820152601060248201527f4552525f4d554c5f4f564552464c4f5700000000000000000000000000000000604482015290519081900360640190fd5b6000670de0b6b3a764000082611a7c565b6001015490565b6000611bcf8383612108565b15611ce8576001600160a01b03821660009081526020849052604090205460018401546000199182019101808214611c87576000856001018281548110611c1257fe5b6000918252602090912001546001870180546001600160a01b039092169250829185908110611c3d57fe5b6000918252602080832091909101805473ffffffffffffffffffffffffffffffffffffffff19166001600160a01b0394851617905592909116815290869052604090206001830190555b6001600160a01b03841660009081526020869052604081205560018501805480611cad57fe5b6000828152602090208101600019908101805473ffffffffffffffffffffffffffffffffffffffff1916905501905550600191506117e09050565b5060006117e0565b6000611cfc8383612108565b611ce857506001828101805480830180835560009283526020808420909201805473ffffffffffffffffffffffffffffffffffffffff19166001600160a01b0387169081179091558352908590526040909120556117e0565b6000818310611d6457816117dd565b5090919050565b60608151604051908082528060200260200182016040528015611d98578160200160208202803883390190505b50905060005b8251811015611fe5576000611db3868661187b565b9050611dbd6121bd565b60016000868581518110611dcd57fe5b6020908102919091018101516001600160a01b039081168352828201939093526040918201600090812086825282528290208251608081018452815469ffffffffffffffffffff8082168352600160501b8204811694830194909452600160a01b900490921692820192909252600190910154606082015291508681169088161015611f705780516020820151611e7f9169ffffffffffffffffffff9081169161053e9183911663ffffffff6118ef16565b848481518110611e8b57fe5b602002602001018181525050611f53858481518110611ea657fe5b60200260200101516001600160a01b031663f8b2cb4f886040518263ffffffff1660e01b815260040180826001600160a01b03166001600160a01b0316815260200191505060206040518083038186803b158015611f0357600080fd5b505afa158015611f17573d6000803e3d6000fd5b505050506040513d6020811015611f2d57600080fd5b50518551869086908110611f3d57fe5b6020026020010151611a8790919063ffffffff16565b848481518110611f5f57fe5b602002602001018181525050611fdb565b60208101518151611f9b9169ffffffffffffffffffff9081169161053e91168263ffffffff6118ef16565b848481518110611fa757fe5b602002602001018181525050611fc2858481518110611ea657fe5b848481518110611fce57fe5b6020026020010181815250505b5050600101611d9e565b509392505050565b600080600019815b61200185516020611d55565b8110156120bd576000805b865181101561208b5786828151811061202157fe5b602002602001015187828151811061203557fe5b602002602001015111801561205c57508387828151811061205257fe5b6020026020010151105b8061207a57508387838151811061206f57fe5b602002602001015110155b15612083578091505b60010161200c565b5085818151811061209857fe5b602090810291909101015160019182016008840260f8031b9490941793925001611ff5565b50909392505050565b60006117dd83836040518060400160405280601e81526020017f536166654d6174683a207375627472616374696f6e206f766572666c6f770000815250612126565b6001600160a01b031660009081526020919091526040902054151590565b600081848411156121b55760405162461bcd60e51b81526004018080602001828103825283818151815260200191508051906020019080838360005b8381101561217a578181015183820152602001612162565b50505050905090810190601f1680156121a75780820380516001836020036101000a031916815260200191505b509250505060405180910390fd5b505050900390565b6040805160808101825260008082526020820181905291810182905260608101919091529056fe536166654d6174683a206d756c7469706c69636174696f6e206f766572666c6f77a265627a7a72315820d1201e9c55b05ab94d0f636218408223116132576ea8c68c08ca5aadbb68f77364736f6c634300050c0032",
  "devdoc": {
    "methods": {}
  },
  "userdoc": {
    "methods": {}
  }
}